:020000040800F2
:1000000000000220F9690008291200082B120008DC
:100010002D1200082F120008311200080000000005
:10002000000000000000000000000000414D00083A
:100030003312000800000000E14D000839480008B4
:10004000496A0008496A0008496A00083512000830
:10005000496A0008496A0008496A0008496A0008B4
:10006000496A0008496A0008496A0008496A0008A4
:10007000496A0008496A0008496A0008496A000894
:10008000496A0008496A0008496A0008000000003F
:10009000000000000000000000000000496A0008A5
:1000A000496A0008496A0008496A0008496A000864
:1000B000496A000845120008496A0008496A0008B0
:1000C000496A0008496A0008496A0008496A000844
:1000D000496A0008496A0008496A000800000000EF
:1000E000496A0008496A0008496A000800000000DF
:1000F000000000000000000000000000496A000845
:1001000000000000496A0008496A0008496A0008BE
:1001100000000000000000000000000000000000DF
:10012000551200086512000875120008496A000897
:10013000496A000800000000000000000000000004
:10014000000000000000000000000000496A0008F4
:10015000496A000885120008496A000895120008DB
:10016000496A0008496A0008000000000000000019
:10017000000000000000000000000000000000007F
:1001800000000000496A00080000000000000000B4
:08019000496A0008496A0008F1
:1001A00081F0004102E000BF83F0004330B54FEA28
:1001B00041044FEA430594EA050F08BF90EA020F95
:1001C0001FBF54EA000C55EA020C7FEA645C7FEA28
:1001D000655C00F0E2804FEA5454D4EB5555B8BF4B
:1001E0006D420CDD2C4480EA020281EA030382EABC
:1001F000000083EA010180EA020281EA0303362D4E
:1002000088BF30BD11F0004F4FEA01314FF4801C20
:100210004CEA113102D0404261EB410113F0004F32
:100220004FEA03334CEA133302D0524263EB4303E9
:1002300094EA050F00F0A780A4F10104D5F1200E87
:100240000DDB02FA0EFC22FA05F2801841F10001E2
:1002500003FA0EF2801843FA05F359410EE0A5F1B6
:1002600020050EF1200E012A03FA0EFC28BF4CF0E7
:10027000020C43FA05F3C01851EBE37101F000459D
:1002800007D54FF0000EDCF1000C7EEB00006EEBAA
:100290000101B1F5801F1BD3B1F5001F0CD3490834
:1002A0005FEA30004FEA3C0C04F101044FEA44528B
:1002B00012F5800F80F09A80BCF1004F08BF5FEA12
:1002C000500C50F1000041EB045141EA050130BDF2
:1002D0005FEA4C0C404141EB0101013C28BFB1F504
:1002E000801FE9D291F0000F04BF01460020B1FA4F
:1002F00081F308BF2033A3F10B03B3F120020CDA22
:100300000C3208DD02F1140CC2F10C0201FA0CF0FF
:1003100021FA02F10CE002F11402D8BFC2F1200C64
:1003200001FA02F120FA0CFCDCBF41EA0C0190401A
:10033000E41AA2BF01EB0451294330BD6FEA040463
:100340001F3C1CDA0C340EDC04F11404C4F120024E
:1003500020FA04F001FA02F340EA030021FA04F360
:1003600045EA030130BDC4F10C04C4F1200220FAB7
:1003700002F001FA04F340EA0300294630BD21FAF5
:1003800004F0294630BD94F0000F83F4801306BFBB
:1003900081F480110134013D4EE77FEA645C18BFAF
:1003A0007FEA655C29D094EA050F08BF90EA020F46
:1003B00005D054EA000C04BF1946104630BD91EA3E
:1003C000030F1EBF0021002030BD5FEA545C05D141
:1003D0004000494128BF41F0004130BD14F5800480
:1003E0003CBF01F5801130BD01F0004545F0FE41F4
:1003F00041F470014FF0000030BD7FEA645C1ABF29
:10040000194610467FEA655C1CBF0B46024650EA5F
:10041000013406BF52EA033591EA030F41F400218B
:1004200030BD00BF90F0000F04BF0021704730B511
:100430004FF4806404F132044FF000054FF00001E6
:1004400050E700BF90F0000F04BF0021704730B5A7
:100450004FF4806404F1320410F0004548BF40427C
:100460004FF000013EE700BF42004FEAE2014FEAD1
:1004700031014FEA02701FBF12F07F4393F07F4FAC
:1004800081F06051704732F07F4208BF704793F0AF
:100490007F4F04BF41F40021704730B54FF46074C2
:1004A00001F0004521F000411CE700BF50EA0102C5
:1004B00008BF704730B54FF000050AE050EA01026E
:1004C00008BF704730B511F0004502D5404261EBDE
:1004D00041014FF4806404F132045FEA915C3FF41F
:1004E000D8AE4FF003025FEADC0C18BF03325FEABC
:1004F000DC0C18BF033202EBDC02C2F1200300FA6D
:1005000003FC20FA02F001FA03FE40EA0E0021FA91
:1005100002F11444BDE600BF4FF0FF3C06E000BF0F
:100520004FF0010C02E000BF4FF0010C4DF804CD7C
:100530004FEA410C7FEA6C5C4FEA430C18BF7FEA3C
:100540006C5C1BD001B050EA410C0CBF52EA430C6A
:1005500091EA030F02BF90EA020F0020704710F1EA
:10056000000F91EA030F58BF994208BF90422CBF79
:10057000D8176FEAE37040F0010070474FEA410C72
:100580007FEA6C5C02D150EA013C07D14FEA430C90
:100590007FEA6C5CD6D152EA033CD3D05DF8040B01
:1005A000704700BF8446104662468C461946634633
:1005B00000E000BF01B5FFF7B7FF002848BF10F10A
:1005C000000F01BD4DF808EDFFF7F4FF0CBF01204F
:1005D00000205DF808FB00BF4DF808EDFFF7EAFFCB
:1005E00034BF012000205DF808FB00BF4DF808ED86
:1005F000FFF7E0FF94BF012000205DF808FB00BF7B
:100600004DF808EDFFF7CEFF94BF012000205DF804
:1006100008FB00BF4DF808EDFFF7C4FF34BF012011
:1006200000205DF808FB00BF53B94AB9002908BF94
:1006300000281CBF4FF0FF314FF0FF3000F00CB826
:10064000ADF1080C6DE904CE06F000FADDF804E027
:10065000DDE9022304B07047704700BF00000000CE
:1006600001F0FF01102A2BDB10F0070F08D010F863
:10067000013B013A8B422DD010F0070F42B3F6D167
:10068000F0B441EA012141EA014122F007047FF080
:1006900000070023F0E80256083C85EA010586EAD7
:1006A000010685FA47F5A3FA87F586FA47F6A5FA13
:1006B00087F68EB9EED1F0BC01F0FF0102F007021F
:1006C00032B110F8013B013A83EA010313B1F8D1CA
:1006D0000020704701387047002D06BF35460338AB
:1006E000073815F0010F07D1013015F4807F02BFE4
:1006F000013015F4C03F0130F0BC0138704700BF35
:10070000034613F8012B002AFBD1181A0138704751
:1007100070B54FF0FF0C4CF4E06C1CEA11541DBF97
:100720001CEA135594EA0C0F95EA0C0F00F0DEF862
:100730002C4481EA030621EA4C5123EA4C5350EA47
:10074000013518BF52EA033541F4801143F4801398
:1007500038D0A0FB02CE4FF00005E1FB02E506F029
:100760000042E0FB03E54FF00006E1FB03569CF07E
:10077000000F18BF4EF0010EA4F1FF04B6F5007F84
:1007800064F5407404D25FEA4E0E6D4146EB0606F6
:1007900042EAC62141EA55514FEAC52040EA5E507F
:1007A0004FEACE2EB4F1FD0C88BFBCF5E06F1ED829
:1007B000BEF1004F08BF5FEA500E50F1000041EB60
:1007C000045170BD06F0004646EA010140EA02000D
:1007D00081EA0301B4EB5C04C2BFD4EB0C0541EA2F
:1007E000045170BD41F480114FF0000E013C00F344
:1007F000AB8014F1360FDEBF002001F0004170BD68
:10080000C4F10004203C35DA0C341BDC04F1140480
:10081000C4F1200500FA05F320FA04F001FA05F20C
:1008200040EA020001F0004221F0004110EBD370D9
:1008300021FA04F642EB06015EEA430E08BF20EA05
:10084000D37070BDC4F10C04C4F1200500FA04F3A8
:1008500020FA05F001FA04F240EA020001F000413A
:1008600010EBD37041F100015EEA430E08BF20EAAD
:10087000D37070BDC4F1200500FA05F24EEA020EF5
:1008800020FA04F301FA05F243EA020321FA04F024
:1008900001F0004121FA04F220EA020000EBD370DB
:1008A0005EEA430E08BF20EAD37070BD94F0000FDB
:1008B0000FD101F00046400041EB010111F4801F0F
:1008C00008BF013CF7D041EA060195F0000F18BFC0
:1008D000704703F00046520043EB030313F4801FFC
:1008E00008BF013DF7D043EA0603704794EA0C0FB6
:1008F0000CEA135518BF95EA0C0F0CD050EA4106CC
:1009000018BF52EA4306D1D181EA030101F0004148
:100910004FF0000070BD50EA410606BF1046194670
:1009200052EA430619D094EA0C0F02D150EA01367C
:1009300013D195EA0C0F05D152EA03361CBF1046BD
:1009400019460AD181EA030101F0004141F0FE415C
:1009500041F470014FF0000070BD41F0FE4141F4E0
:10096000780170BD70B54FF0FF0C4CF4E06C1CEAE0
:1009700011541DBF1CEA135594EA0C0F95EA0C0F95
:1009800000F0A7F8A4EB050481EA030E52EA033550
:100990004FEA013100F088804FEA03334FF0805571
:1009A00045EA131343EA12634FEA022245EA11159E
:1009B00045EA10654FEA00260EF000419D4208BF4F
:1009C000964244F1FD0404F5407402D25B084FEAFC
:1009D0003202B61A65EB03055B084FEA32024FF4A8
:1009E00080104FF4002CB6EB020E75EB030E22BF05
:1009F000B61A754640EA0C005B084FEA3202B6EBC5
:100A0000020E75EB030E22BFB61A754640EA5C0073
:100A10005B084FEA3202B6EB020E75EB030E22BF03
:100A2000B61A754640EA9C005B084FEA3202B6EB04
:100A3000020E75EB030E22BFB61A754640EADC00C3
:100A400055EA060E18D04FEA051545EA16754FEA25
:100A500006164FEAC30343EA52734FEAC2025FEA43
:100A60001C1CC0D111F4801F0BD141EA00014FF0D2
:100A700000004FF0004CB6E711F4801F04BF0143A3
:100A80000020B4F1FD0C88BFBCF5E06F3FF6AFAEBF
:100A9000B5EB030C04BFB6EB020C5FEA500C50F14F
:100AA000000041EB045170BD0EF0004E4EEA1131D2
:100AB00014EB5C04C2BFD4EB0C0541EA045170BDD9
:100AC00041F480114FF0000E013C90E645EA060E1D
:100AD0008DE60CEA135594EA0C0F08BF95EA0C0F4B
:100AE0003FF43BAF94EA0C0F0AD150EA01347FF493
:100AF00034AF95EA0C0F7FF425AF104619462CE76A
:100B000095EA0C0F06D152EA03353FF4FDAE1046CC
:100B1000194622E750EA410618BF52EA43067FF41D
:100B2000C5AE50EA41047FF40DAF52EA43057FF4AD
:100B3000EBAE12E74FEA410C7FEA6C5C02D150EA5F
:100B4000013C0AD14FEA430C7FEA6C5C02D152EAC5
:100B5000033C02D14FF0000070474FF00100704796
:100B60004FEA410212F5001215D211D56FF47873D5
:100B7000B3EB625212D94FEAC12343F0004343EA78
:100B8000505311F0004F23FA02F018BF4042704753
:100B90004FF00000704750EA013005D111F00040DD
:100BA00008BF6FF0004070474FF00000704700BF73
:100BB00010B5054C237833B9044B13B10448AFF397
:100BC00000800123237010BDE4010020000000001C
:100BD0007896000808B5034B1BB103490348AFF3EF
:100BE000008008BD00000000E801002078960008A1
:100BF00000B585B000230093019302930393154839
:100C0000154A02604FF480324260836003610376CC
:100C100080F82030C362114A8262C3600122C2613F
:100C200080F83030426101F0F1F860B9012300939F
:100C30000193002302936946064801F013F928B98D
:100C400005B05DF804FB00F00FF9EFE700F00CF9D8
:100C5000F6E700BF60020020002001400100000F05
:100C600030B589B00023039304930593069307934B
:100C7000026803F1804303F590339A4201D009B032
:100C800030BD04460025019503F58C335A6C42F4BF
:100C900080725A645A6C02F480720192019A029531
:100CA0001A6B42F001021A631B6B03F001030293FB
:100CB000029B022303930323049303A9104801F02A
:100CC0006FFC1048104B036045608560C5604FF4B1
:100CD000806303614FF4006343614FF40053836109
:100CE0004FF48073C3610562456201F075FA18B96B
:100CF000044BA3639C63C2E700F0B6F8F8E700BFBB
:100D000000000240000200201064024010B582B0D2
:100D100000240194154B1A6B42F480021A631B6B7A
:100D200003F480030193019B22460521382001F042
:100D3000C3F9382001F0D0F922460521392001F00D
:100D4000BBF9392001F0C8F9224605213A2001F00B
:100D5000B3F93A2001F0C0F922460521452001F0FF
:100D6000ABF9452001F0B8F902B010BD00380240DF
:100D700008B5012003F0B1FEFBE7000008B5074A03
:100D80000021074803F0D1FD064B1860064A0021F8
:100D9000064803F0CAFD064B186008BDFC96000823
:100DA000710D0008AC020020D8960008791B0008DD
:100DB000A8020020F0B589B003AD00240394049488
:100DC00005940694079400941F4B1A6B42F004029A
:100DD0001A631A6B02F004020092009A01941A6BD3
:100DE00042F001021A631A6B02F001020192019AA9
:100DF00002941A6B42F002021A631B6B03F00203A7
:100E00000293029B114E22460121304601F0ACFCB8
:100E100001224FF46041304601F0A6FC0127039700
:100E20000497059406942946304601F0B9FB4FF427
:100E300060430393049705940223069329463046A2
:100E400001F0AEFB09B0F0BD0038024000040240E2
:100E500008B50268034B9A4200D008BD00F02AFF93
:100E6000FBE700BF0004004072B6FEE710B594B087
:100E700008AC30220021204606F0C2FC0023039378
:100E8000049305930693079301931F4A116C41F055
:100E900080511164126C02F080520192019A029307
:100EA0001A4A116841F440411160126802F440424C
:100EB0000292029A0A22089201220B9210210C91AE
:100EC0000D9202220E920F93082310936423119324
:100ED000129204231393204601F056FC80B90F238D
:100EE000039302230493002305934FF48052069248
:100EF0000793032103A801F097FE18B914B010BDA1
:100F0000FFF7B2FFFFF7B0FF00380240007000406B
:100F100008B500F0B5FEFFF7A9FFFFF74BFFFFF79D
:100F2000F5FEFFF765FE00F00FF800F0DDFA00F0C7
:100F3000F5FA00F065FA00F08BF803F089FCFFF792
:100F40001DFF03F097FCFEE700B587B00023019377
:100F5000029303930493059300932448244A026068
:100F600043607F228260FF22C2600361436183612C
:100F700002F058F868BB11238DF8043059238DF81E
:100F8000053055238DF80630002304930593012284
:100F900001A9164802F0A0F8F0B907238DF8003037
:100FA00005238DF8013021238DF8023023238DF89D
:100FB0000330012269460D4802F0EEF878B90022AC
:100FC0004FF4FA61094802F035F958B907B05DF8F5
:100FD00004FBFFF749FFCEE7FFF746FFDDE7FFF72A
:100FE00043FFECE7FFF740FFF0E700BFB00200204F
:100FF0000028004000B587B00023009301930293BE
:1010000003930493059302680F4B9A4202D007B0F2
:101010005DF804FB022300934FF4007304936846C9
:1010200001F0F6FE60B9094B0122C3F83C2E002204
:101030000521032001F040F8032001F04DF8E6E718
:10104000FFF712FFEFE700BF002800400000474213
:1010500008B50E480E4B03604FF4827343600023C3
:101060008360C36002220261012242614FF4007278
:101070008261C3610362436283620A23C36202F036
:101080002BFA00B908BDFFF7EFFEFBE730030020A5
:101090000030014030B589B00023039304930593D9
:1010A000069307930268224B9A4201D009B030BDE3
:1010B00004460025019503F584335A6C42F48052AE
:1010C0005A645A6C02F480520192019A02951A6B8A
:1010D00042F002021A631B6B03F002030293029BAD
:1010E00028230393022304930323069305230793E2
:1010F00003A9104801F054FA0F48104B03604FF059
:101100008063436040238360C5604FF48063036164
:1011100045618561C5610562456201F05DF818B9F8
:10112000054BA3649C63C1E7FFF79EFEF8E700BF91
:101130000030014000040240D00200204064024020
:1011400000B583B0002200920D4B596C41F48041F0
:101150005964596C01F48041009100990192196C15
:1011600041F0805119641B6C03F080530193019B83
:101170000F216FF0010000F09FFF03B05DF804FB4A
:101180000038024030B589B0044600230193214B5A
:101190001A6C42F002021A641B6C03F00203019302
:1011A000019B02A903A801F015FE069BCBB901F033
:1011B000F1FD0346184AA2FB03239B0C013B174891
:1011C000174A026040F2E732C260436000230361C5
:1011D0008360836102F0AEFC054630B1284609B059
:1011E00030BD01F0D7FD4300E4E70C4802F062FB9C
:1011F00005460028F2D11D2000F06EFF0F2C01D90A
:101200000125EBE7002221461D2000F055FF054B8C
:101210001C60E3E70038024083DE1B4388030020A4
:101220000004004014000020FEE7FEE7FEE7FEE7B2
:10123000FEE7704708B5024802F092F808BD00BF0B
:10124000B002002008B5024802F073FB08BD00BFE1
:101250008803002008B5024801F0B4F808BD00BFBB
:101260000002002008B5024801F0ACF808BD00BF3C
:101270007C04002008B5024801F0A4F808BD00BFB6
:10128000D002002008B5024801F09CF808BD00BF5C
:101290001C04002008B5024803F0B4F808BD00BFE4
:1012A000DC0400200120704708B506F0FBFA162385
:1012B00003604FF0FF3008BD08B54FF0FF31FFF776
:1012C000F3FFFEE770B50C461646002506E0AFF3C7
:1012D0000080214601F8010B01350C46B542F6DBD2
:1012E000304670BD70B50C461646002504E014F873
:1012F000010BAFF300800135B542F8DB304670BD1D
:101300004FF0FF3070474FF400534B6000207047A0
:10131000012070470020704710B503460C4A0D4964
:101320000D48006840B10C4800680344521A9342CB
:1013300006D8094A136010BD0748084C0460F2E75C
:1013400006F0B0FA0C2303604FF0FF30F3E700BF64
:101350000000022000040000D0030020E050002024
:10136000034AD2F8883043F47003C2F888307047DB
:1013700000ED00E00268094B9A4200D0704782B04D
:1013800000230193064B5A6C42F001025A645B6CD5
:1013900003F001030193019B02B07047000001407C
:1013A0000038024000B587B00023019302930393F5
:1013B0000493059302680F4B9A4202D007B05DF880
:1013C00004FB002300930C4B1A6B42F001021A63DA
:1013D0001B6B03F001030093009B4FF48073019398
:1013E000022302930123059301A9044801F0D8F8D0
:1013F000E4E700BF00000140003802400000024066
:1014000010B596B00024129413941494159410946B
:10141000119409940A940B940C940D940E940F94C7
:101420002022214601A806F0EBF92D482D4B036040
:101430006323436084604FF49673C3600461446126
:10144000846102F077FB002837D14FF48053129368
:1014500012A9234802F06FFC002831D1204802F085
:1014600095FB00282FD100231093119310A91C483D
:1014700002F0E0FC50BB6023099300220A920B9219
:101480000C920D920E920F9209A9154802F0D8FB0A
:10149000F8B90023019302930393049305934FF447
:1014A00000520692089301A90D4802F001FD98B977
:1014B0000B48FFF777FF16B010BDFFF7D5FCC4E768
:1014C000FFF7D2FCCAE7FFF7CFFCCCE7FFF7CCFC75
:1014D000D1E7FFF7C9FCDCE7FFF7C6FCE8E700BF90
:1014E000D40300200000014008B50A480A4B0360FD
:1014F0004FF4E133436000238360C36003610C2237
:1015000042618361C36102F036FE00B908BDFFF796
:10151000ABFCFBE7240500200010014008B50A4899
:101520000A4B03604FF4E133436000238360C360E0
:1015300003610C2242618361C36102F01CFE00B9A9
:1015400008BDFFF791FCFBE7DC040020001401401C
:1015500030B58BB000230593069307930893099346
:101560000368484A934205D00446474A934225D02F
:101570000BB030BD00210191444B5A6C42F0100277
:101580005A645A6C02F010020192019A02911A6B8D
:1015900042F001021A631B6B03F001030293029BEA
:1015A0004FF4C06305930223069303230893072394
:1015B000099305A9364800F0F3FFD9E70025039504
:1015C000324B5A6C42F020025A645A6C02F02002EC
:1015D0000392039A04951A6B42F001021A631B6B83
:1015E00003F001030493049B4FF4C05305930223BB
:1015F0000693032308930823099305A9244800F0C0
:10160000CFFF2448244B03604FF020634360856084
:10161000C5604FF48063036145618561C5614FF426
:1016200040330362456200F0D7FD28BB194BE363EA
:101630009C631A481A4B03604FF0206343604023B9
:1016400083600023C3604FF4806202614361836161
:10165000C3614FF480320262436200F0BDFD70B995
:101660000E4BA3639C6300220521472000F024FD5C
:10167000472000F031FD7BE7FFF7F6FBD6E7FFF7E9
:10168000F3FBEDE700100140001401400038024078
:10169000000002407C040020286402401C0400205A
:1016A000A064024010B44FF0E0235C690C4A126859
:1016B00002FB00FC9B69002104E0E01A0244114493
:1016C000614509D21A464FF0E0239B699A42FAD04D
:1016D000F3D9D21A1144F3E75DF8044B704700BF09
:1016E0006C0500200368064A934207D002F5806229
:1016F000934201D0032070470020704701207047BB
:101700000010014008B5FFF7EDFF032807D000EBFC
:10171000C000034B03EB80035B6803B1984708BD2F
:101720007005002008B5FFF7DDFF032807D000EBA8
:10173000C000034B03EB8003DB6803B1984708BD8F
:101740007005002008B5FFF7CDFF032807D000EB98
:10175000C000034B03EB80039B6803B1984708BDAF
:101760007005002008B5FFF7BDFF032807D000EB88
:10177000C000034B03EB80031B6903B1984708BD0E
:101780007005002018B1012803D1034870470348B1
:1017900070470020704700BF24050020DC040020B3
:1017A000F0B587B001AC0023019302930393049337
:1017B00005930093104B1A6B42F002021A631B6BE5
:1017C00003F002030093009B48F2500601960127A4
:1017D000029703230493094D2146284600F0E0FEBA
:1017E0002146074800F0DCFE3A463146284600F024
:1017F000BBFF07B0F0BD00BF00380240000402404C
:101800000000024000B583B08DF8070001231A469E
:101810000DF10701024801F0BEFE03B05DF804FBC4
:101820003003002008B5FFF7EDFF08BD38B50446CA
:10183000084D00224FF40041284600F095FF204655
:10184000FFF7E0FF01224FF40041284600F08CFF33
:1018500038BD00BF00000240431FDBB25F2B04D83D
:10186000024B1B6800EB400058637047D403002014
:1018700010B5FFF795FF674C00221021204600F0BD
:1018800073FF00224021204600F06EFF6420FFF726
:1018900009FF01224021204600F066FF6420FFF787
:1018A00001FF1120FFF7C2FF7820FFF7FBFE362073
:1018B000FFF7BCFF0020FFF7B5FF3A20FFF7B6FFA8
:1018C0000520FFF7AFFFB220FFF7B0FF0C20FFF7B6
:1018D000A9FF0C20FFF7A6FF0020FFF7A3FF33208E
:1018E000FFF7A0FF3320FFF79DFFB720FFF79EFF14
:1018F0003520FFF797FFBB20FFF798FF1920FFF770
:1019000091FFC020FFF792FF2C20FFF78BFFC22032
:10191000FFF78CFF0120FFF785FFC320FFF786FF4D
:101920001220FFF77FFFC420FFF780FF2020FFF782
:1019300079FFC620FFF77AFF0F20FFF773FFD02053
:10194000FFF774FFA420FFF76DFFA120FFF76AFFE8
:10195000E020FFF76BFFD020FFF764FF0420FFF7C4
:1019600061FF0D20FFF75EFF1120FFF75BFF1320E3
:10197000FFF758FF2B20FFF755FF3F20FFF752FFDF
:101980005420FFF74FFF4C20FFF74CFF1820FFF7C4
:1019900049FF0D20FFF746FF0B20FFF743FF1F20F5
:1019A000FFF740FF2320FFF73DFFE120FFF73EFF59
:1019B000D020FFF737FF0420FFF734FF0C20FFF79C
:1019C00031FF1120FFF72EFF1320FFF72BFF2C20F4
:1019D000FFF728FF3F20FFF725FF4420FFF722FFF6
:1019E0005120FFF71FFF2F20FFF71CFF1F20FFF7DD
:1019F00019FF1F20FFF716FF2020FFF713FF2320FA
:101A0000FFF710FF2120FFF711FF2920FFF70EFF3E
:101A100010BD00BF0004024008B50020FFF7B2FE71
:101A20004022044902F0F6FE00B908BD4FF0FF3035
:101A3000FBE700BFB8050020202A2FD830B591B0B1
:101A40000D461446AA238DF800308DF801008DF85C
:101A500002200DF1030005F052FF0023184604E0B8
:101A6000EA5C1044C0B20133DBB2A342F8D304F104
:101A700043036B4403F8400C04F144036B445522C8
:101A800003F8402C0020FFF77DFE4FF0FF33621D6E
:101A9000694602F0A0FB20B911B030BD4FF0FF3015
:101AA00070474FF0FF30F7E738B5184B1B78AA2B7B
:101AB00022D10546154A93780433D35C552B1ED1A9
:101AC00011465378037094784470224603310230F3
:101AD00005F015FF00231A4605E0E91889780A4445
:101AE000D2B20133DBB29C42F7D80334074B1B5D03
:101AF000934207D1002038BD4FF0FF30FBE74FF095
:101B0000FF30F8E76FF00100F5E700BFB8050020EF
:101B100030B58BB002F006FF134BA3FB00352D0947
:101B200002F0F6FE044603E02C44204602F0E3FFF8
:101B300002F055FF02F057FF0C4B18620C4A136875
:101B40000133136004220B491046FFF775FF14227E
:101B50000021012002F06CFF0128E5D101A8FFF768
:101B6000A3FFFFF759FFDFE7D34D62100406002003
:101B7000F80500200400002010B502F097FE0F4A7F
:101B800000210F4802F0D1FE0E4C20600E4A0021C9
:101B90000E4802F0CAFE60600D4A00210D4802F0B6
:101BA000C4FEA0600C4802F0BEFF606102F093FE2C
:101BB00002F015FF02F024FF10BD00BF909700084F
:101BC0002D1C0008040600206C970008DD1B00088F
:101BD00048970008111B00083897000838B502F034
:101BE000A1FE0F4BA3FB00356D0902F091FE0446E8
:101BF000FFF73EFE5020FFF72FFE02F0F0FE02F04E
:101C0000F2FE084BD861084A1368013313604FF4A1
:101C1000FA7002F062FF2C44204602F06CFFECE701
:101C2000D34D621004060020FC05002038B502F0F8
:101C300079FE0F4BA3FB00356D0902F069FE0446E7
:101C400002F0CDFE02F0CFFE0A4B98614FF48041C6
:101C5000094800F08FFD094A1368013313604FF4FF
:101C6000FA7002F03AFF2C44204602F044FFE7E706
:101C7000D34D62100406002000040240000600203C
:101C800008B50B4B1A6842F400721A601A6842F4E5
:101C900080621A601A6842F480721A60032000F0B1
:101CA000F9F90F20FFF76EFAFFF74AFA002008BD96
:101CB000003C0240034A1168034B1B780B4413603D
:101CC000704700BF4006002010000020014B18683C
:101CD000704700BF400600204A4B5A6822F4403249
:101CE0005A605A6841680A435A600268536823F48C
:101CF0008073536002685368016943EA01235360AB
:101D00000268536823F04073536002685368816827
:101D10000B4353600268936823F400639360026886
:101D20009368C1680B439360826A374B9A4257D0DD
:101D30000268936823F07063936002689368816A15
:101D40000B4393600268936823F0405393600268EA
:101D50009368C16A0B4393600268936823F002039F
:101D6000936002689368017E43EA4103936090F8B0
:101D70002030002B3FD00268536843F40063536067
:101D80000268536823F46043536001684B68426AF9
:101D9000013A43EA42334B600268D36A23F470038A
:101DA000D3620168CB6AC269013A43EA0253CB624B
:101DB0000268936823F4007393600268936890F854
:101DC000301043EA412393600268936823F48063F0
:101DD000936002689368416943EA81239360704786
:101DE0000268936823F0706393600268936823F03D
:101DF00040539360B0E70268536823F40063536074
:101E0000CAE700BF002301400100000F38B310B53E
:101E10000446036C43B1236C13F0100F0BD0012068
:101E2000002384F83C3010BDFEF71AFF00236364E2
:101E300084F83C30EFE7236C23F4885323F002034B
:101E400043F0020323642046FFF746FF002060644E
:101E5000236C23F0030343F001032364E0E7012034
:101E60007047000030B482B00022019290F83C200C
:101E7000012A00F0C0800346012280F83C200A6855
:101E8000092A40D90468E06892B202EB42021E3A85
:101E90004FF0070C0CFA02F220EA0202E2601C6822
:101EA000E0680A8802EB42021E3A8D6805FA02F2E7
:101EB0000243E2604A68062A3CD81C68606B02EB69
:101EC0008202053A4FF01F0C0CFA02F220EA0202DD
:101ED00062631C68606B4A6802EB8202053AB1F8E3
:101EE00000C00CFA02F2024362631868434A90424F
:101EF00050D01868414A904259D0002083F83C00E5
:101F000002B030BC70470468206992B202EB420212
:101F10004FF0070C0CFA02F220EA020222611C6860
:101F200020690A8802EB42028D6805FA02F2024338
:101F30002261BFE70C2A16D81D68286B02EB8202CB
:101F4000233A1F2404FA02F220EA02022A631D68DF
:101F5000286B4A6802EB8202233A0C8804FA02F2E8
:101F600002432A63C1E71D68E86A02EB8202413A34
:101F70001F2404FA02F220EA0202EA621D68E86AFB
:101F80004A6802EB8202413A0C8804FA02F20243E8
:101F9000EA62AAE70A68122AABD1194A506820F40B
:101FA00000005060506840F480005060A1E70A686B
:101FB0001448824201D0112A9FD1114A506820F45E
:101FC00080005060506840F40000506009680D4A7D
:101FD000914292D10C4A12680C49A1FB0212920C58
:101FE00002EB820252000192019A002A85D0019AE6
:101FF000013A0192F8E7022082E700BF0020014089
:1020000000230140120000100000002083DE1B436B
:10201000002807DB00F01F02400901239340024A19
:1020200042F82030704700BF00E100E0002808DBE4
:102030000901C9B200F1604000F5614080F8001369
:10204000704700F00F000901C9B2014B19547047E5
:1020500014ED00E000B500F00700C0F1070CBCF182
:10206000040F28BF4FF0040C031D062B0FD9C31E0D
:102070004FF0FF3E0EFA0CF021EA000199400EFAF3
:1020800003FE22EA0E0241EA02005DF804FB00238F
:10209000EEE70000074AD36823F4E0631B041B0C3F
:1020A000000200F4E060034343F0BF6343F40033F5
:1020B000D360704700ED00E010B50446054BD868CA
:1020C000C0F30220FFF7C6FF01462046FFF7AEFF30
:1020D00010BD00BF00ED00E008B5FFF799FF08BD97
:1020E00030B405682C6824F480242C600468636094
:1020F0008368402B05D0036899600368DA6030BCC0
:10210000704703689A600368D960F8E710B4036801
:10211000D9B210390A4AA2FB01421209094CA25C49
:10212000C2655F2907D96FF3090304338365806DA6
:102130005DF8044B70476FF309038365F7E700BF51
:10214000ABAAAAAAB4970008836A826992B9012B44
:102150000AD0022B02D00BB100207047C36A13F0E3
:10216000807F28D100207047C36AB3F1C07F24D09C
:1021700000207047B2F5005F09D0022B25D9032B50
:1021800025D1C36A13F0807F23D100207047032B31
:1021900003D8DFE803F01404140A00207047C36A70
:1021A00013F0807F0DD100207047C36AB3F1C07F68
:1021B00009D000207047012070470120704701209E
:1021C00070470120704701207047012070470020B0
:1021D000704701207047000070B50446FFF776FD98
:1021E000002C5BD00546022384F83530002384F8A8
:1021F00034302268136823F00103136023681A68DF
:1022000012F0010F0AD0FFF761FD431B052BF5D932
:1022100020236365032084F8350070BD1A682049C7
:1022200011406268A0680243E068024320690243EB
:1022300060690243A0690243E0690243206A0243E5
:102240000A43616A04291ED01A602668756925F060
:102250000705636A1D43042B07D1A36A1D43E36A84
:102260001BB12046FFF770FF90B975612046FFF75C
:102270004DFFE26D3F2393408360002060650123A2
:1022800084F83530C9E7E16A206B01430A43DBE794
:1022900040236365012084F83500BEE70120BCE7D8
:1022A0003F8010F038B50446856D90F83400012861
:1022B0002AD0012084F8340094F83500012804D095
:1022C000002384F83430022038BD022084F8350021
:1022D000002060652046FFF703FFE26D3F23934037
:1022E000AB602268136843F016031360236C23B1BC
:1022F0002268136843F0080313602268136843F0F0
:10230000010313600020DFE70220DDE770B504461B
:10231000866DFFF7DBFC94F83530022B06D0802366
:102320006365002384F83430012070BD05462268BF
:10233000136823F0160313602268536923F08003A7
:102340005361236CE3B12268136823F00803136020
:102350002268136823F00103136023681B6813F0DD
:10236000010F11D0FFF7B2FC431B052BF5D9202339
:102370006365032084F83500002384F83430D4E703
:10238000A36C002BDFD1E3E7E26D3F239340B36002
:10239000012384F83530002084F83400C5E790F834
:1023A0003530022B03D0802343650120704705237D
:1023B00080F835300268136823F0010313600020B1
:1023C00070470000F0B583B0044600230193724BC0
:1023D0001D68724BA3FB0535AD0A876D3E68C26D63
:1023E00008239340334210D003681A6812F0040F98
:1023F0000BD01A6822F004021A60C26D08239340C1
:10240000BB60436D43F001034365E26D01239340DC
:10241000334209D02268526912F0800F04D0BB60A9
:10242000636D43F002036365E26D0423934033421E
:1024300009D02268126812F0020F04D0BB60636DED
:1024400043F004036365E26D10239340334224D0CC
:102450002268126812F0080F1FD0BB6023681A6848
:1024600012F4802F0DD01B6813F4002F04D1236CBD
:102470009BB12046984710E0A36C73B12046984763
:102480000BE01A6812F4807F03D11A6822F0080268
:102490001A60236C0BB120469847E26D20239340CD
:1024A000334254D02268126812F0100F4FD0BB6034
:1024B00094F83530052B0ED023681A6812F4802F5B
:1024C00033D01B6813F4002F2AD1636C002B3ED04D
:1024D000204698473BE02268136823F016031360F8
:1024E0002268536923F080035361236CA3B12268EF
:1024F000136823F008031360E26D3F239340BB6031
:10250000012384F83530002384F83430236D002B08
:102510003FD0204698473CE0A36C002BE7D1EBE787
:10252000E36BA3B12046984711E01A6812F4807F4C
:1025300009D11A6822F010021A60012384F835309C
:10254000002384F83430E36B0BB120469847636D69
:10255000FBB1636D13F0010F17D0052384F83530FC
:102560002268136823F001031360019B0133019378
:10257000AB4204D823681B6813F0010FF5D1012387
:1025800084F83530002384F83430E36C0BB12046F6
:10259000984703B0F0BD00BF00000020B5814E1B7E
:1025A00000230F2B00F2D78070B582B065E08568FC
:1025B0004FEA430E032404FA0EF425EA0405CC681E
:1025C00004FA0EF42C438460446824EA02044A6846
:1025D000C2F300129A40224342605CE0DC080834F7
:1025E00050F8242003F00705AD004FF00F0E0EFA4F
:1025F00005FE22EA0E0E0A69AA4042EA0E0240F8DF
:1026000024205CE0042200E0002202FA0EF22A43B9
:102610000234514D45F82420504A94686FEA0C0268
:1026200024EA0C054E6816F4801F01D04CEA04051C
:102630004A4CA560E46802EA04054E6816F4001FDF
:1026400001D04CEA0405454CE560646802EA0405E3
:102650004E6816F4003F01D04CEA04053F4C65601B
:10266000246822404D6815F4803F01D04CEA0402F2
:102670003A4C226001330F2B6BD801229A400C6830
:1026800004EA020C32EA0404F4D14C6804F00304B6
:10269000013C012C8BD94A6802F00302032A09D0BD
:1026A000C4685D000322AA4024EA02048A68AA40A2
:1026B0002243C2604A6802F00302022A8ED00468F4
:1026C0004FEA430E032202FA0EF224EA02044A6899
:1026D00002F0030202FA0EF2224302604A6812F488
:1026E000403FC7D0002201921D4A546C44F48044FC
:1026F0005464526C02F480420192019A9C08A51C19
:10270000154A52F8255003F0030E4FEA8E0E0F22A1
:1027100002FA0EF225EA0205124A90423FF474AF23
:1027200002F5806290420ED002F5806290420CD099
:1027300002F5806290420AD002F5806290423FF436
:1027400061AF072261E701225FE702225DE7032212
:102750005BE702B070BD704700380140003C0140AB
:1027600000380240000002400AB18161704709044C
:1027700081617047436901EA030221EA030141EAEA
:102780000241816170470000002800F0E08170B5CF
:1027900082B00446036813F0010F3BD09F4B9B6847
:1027A00003F00C03042B2CD09C4B9B6803F00C0310
:1027B000082B21D06368B3F5803F4FD0B3F5A02F2D
:1027C00052D0964B1A6822F480321A601A6822F4AA
:1027D00080221A606368002B50D0FFF777FA054615
:1027E0008E4B1B6813F4003F14D1FFF76FFA401BA8
:1027F0006428F5D90320B1E1884B5B6813F4800F9E
:10280000D8D0864B1B6813F4003F03D06368002BBD
:1028100000F09F81236813F0020F54D07F4B9B6818
:1028200013F00C0F3ED07D4B9B6803F00C03082B7C
:1028300033D0E368002B68D0794B01221A60FFF790
:1028400045FA0546754B1B6813F0020F54D1FFF78C
:102850003DFA401B0228F5D903207FE16F4A136837
:1028600043F480331360B5E76C4B1A6842F480225E
:102870001A601A6842F480321A60ABE7FFF726FA52
:102880000546664B1B6813F4003FC3D0FFF71EFAE2
:10289000401B6428F5D9032060E1604B5B6813F4AA
:1028A000800FC6D15D4B1B6813F0020F03D0E368A5
:1028B000012B40F05081594A136823F0F803216935
:1028C00043EAC1031360236813F0080F42D0636921
:1028D0006BB3534B0122C3F8802EFFF7F7F905467F
:1028E0004E4B5B6F13F0020F34D1FFF7EFF9401B33
:1028F0000228F5D9032031E1484A136823F0F80390
:10290000216943EAC1031360DDE7454B00221A60E9
:10291000FFF7DCF90546414B1B6813F0020FD2D0DC
:10292000FFF7D4F9401B0228F5D9032016E13C4BF0
:102930000022C3F8802EFFF7C9F90546374B5B6FBD
:1029400013F0020F06D0FFF7C1F9401B0228F5D99A
:10295000032003E1236813F0040F77D02F4B1B6C87
:1029600013F0805F33D1002301932C4B1A6C42F09B
:1029700080521A641B6C03F080530193019B012564
:10298000284B1B6813F4807F23D0A368012B34D01D
:10299000052B38D0214B1A6F22F001021A671A6FEB
:1029A00022F004021A67A368002B3DD0FFF78EF9CE
:1029B00006461A4B1B6F13F0020F46D1FFF786F93C
:1029C000801B41F288339842F3D90320C6E00025EA
:1029D000D6E7144A136843F480731360FFF776F95F
:1029E0000646104B1B6813F4807FCED1FFF76EF9BB
:1029F000801B0228F5D90320B0E0084A136F43F08A
:102A000001031367CFE7054B1A6F42F004021A6700
:102A10001A6F42F001021A67C5E700BF0038024092
:102A20000000474200700040FFF750F90646524B45
:102A30001B6F13F0020F08D0FFF748F9801B41F21B
:102A400088339842F3D9032088E0EDB9A369002BBD
:102A500000F08380484A926802F00C02082A51D0A4
:102A6000022B17D0454B00221A66FFF72FF90446B8
:102A7000414B1B6813F0007F42D0FFF727F9001B82
:102A80000228F5D9032069E03B4A136C23F08053F8
:102A90001364DBE7394B00221A66FFF717F9054686
:102AA000354B1B6813F0007F06D0FFF70FF9401B72
:102AB0000228F5D9032051E0E369226A1343626AD0
:102AC00043EA8213A26A5208013A43EA0243E26AE5
:102AD00043EA0263284A5360284B01221A66FFF733
:102AE000F5F80446244B1B6813F0007F06D1FFF76E
:102AF000EDF8001B0228F5D903202FE000202DE07F
:102B000000202BE0012B2BD01B4B5B6803F48001D2
:102B1000E269914226D103F03F02216A8A4223D121
:102B2000616A47F6C0721A40B2EB811F1ED103F4EE
:102B30004031A26A5208013AB1EB024F18D103F0BA
:102B40007063E26AB3EB026F14D1002006E001204B
:102B50007047012002E0012000E0002002B070BDBB
:102B60000120FBE70120F9E70120F7E70120F5E765
:102B70000120F3E70120F1E700380240000047425E
:102B800008B5264B9B6803F00C03042B41D0082B9F
:102B900041D1224B5A6802F03F025B6813F4800F68
:102BA00012D01E4B5968C1F388111D480023A1FBA8
:102BB0000001FDF739FD194B5B68C3F30143013395
:102BC0005B00B0FBF3F008BD144B5868C0F38810ED
:102BD0004FEA401CBCEB000C6EEB0E0E4FEA8E135E
:102BE00043EA9C634FEA8C11B1EB0C0163EB0E03DB
:102BF000DB0043EA5173C90011EB000C43F1000301
:102C0000990200234FEA8C2041EA9C51FDF70CFD0C
:102C1000D1E70348D7E70348D5E700BF00380240B3
:102C200040787D010024F400002800F09B8070B5FE
:102C30000D4604464F4B1B6803F007038B4208D236
:102C4000CBB24C4A1370136803F007038B4240F079
:102C50008B80236813F0020F17D013F0040F04D0F9
:102C6000454A936843F4E0539360236813F0080FD8
:102C700004D0414A936843F4604393603E4A9368AA
:102C800023F0F003A1680B439360236813F0010F56
:102C900032D06368012B21D09A1E012A25D9364AE9
:102CA000126812F0020F61D033498A6822F00302E1
:102CB00013438B60FFF70AF806462F4B9B6803F01F
:102CC0000C036268B3EB820F16D0FEF7FFFF801B88
:102CD00041F288339842F0D9032042E0264A126834
:102CE00012F4003FE0D101203BE0234A126812F0C9
:102CF000007FD9D1012034E01E4B1B6803F007038D
:102D0000AB4207D9EAB21B4B1A701B6803F00703EA
:102D1000AB422DD1236813F0040F06D0164A9368F6
:102D200023F4E053E1680B439360236813F0080F2A
:102D300007D0114A936823F46043216943EAC10331
:102D40009360FFF71DFF0C4B9B68C3F303130B4A03
:102D5000D35CD8400A4B18600A4B1868FEF712FA89
:102D6000002070BD012070470120FAE70120F8E73C
:102D70000120F6E7003C0240003802402897000896
:102D80000000002014000020014B1868704700BFAD
:102D90000000002008B5FFF7F7FF044B9B68C3F362
:102DA0008223034AD35CD84008BD00BF00380240EC
:102DB0002097000808B5FFF7E7FF044B9B68C3F3B3
:102DC0004233034AD35CD84008BD00BF00380240FC
:102DD000209700080F2303600B4B9A6802F0030250
:102DE00042609A6802F0F00282609A6802F4E0524F
:102DF000C2609B68DB0803F4E0530361034B1B686C
:102E000003F007030B60704700380240003C0240AB
:102E100030B583B00446036813F0050F0ED1236864
:102E200013F0020F38D1236813F0080F00F09D80D3
:102E3000227D4F4BC3F8E021002097E04D4B00224C
:102E40009A66FEF743FF05464B4B1B6813F0006F75
:102E500006D0FEF73BFF431B022BF5D9032085E08C
:102E60006368A26843EA8213E26843EA0273424A53
:102E7000C2F884303F4B01229A66FEF727FF0546D1
:102E80003D4B1B6813F0006FC9D1FEF71FFF401BBD
:102E90000228F5D9032069E000230193364B1A6C10
:102EA00042F080521A641B6C03F080530193019B23
:102EB000324A136843F480731360FEF707FF054638
:102EC0002E4B1B6813F4807F06D1FEF7FFFE431BD9
:102ED000022BF5D9032049E0274B1B6F13F44073F5
:102EE00014D0226902F440729A420FD0224B1A6F1A
:102EF00022F440721F490120C1F8400E0020C1F8A1
:102F0000400E1A671B6F13F0010F12D1236903F4EF
:102F10004072B2F5407F1DD0174A936823F4F8132E
:102F2000936015490B6F2269C2F30B0213430B67C1
:102F300079E7FEF7CBFE05460F4B1B6F13F0020F30
:102F4000E4D1FEF7C3FE401B41F288339842F3D927
:102F500003200BE008498A6822F4F81223F070433A
:102F600023F4407313438B60DBE7002003B030BDD4
:102F70000010474200004742003802400070004005
:102F800038B5044603680A4ADA60FEF79FFE054634
:102F90002368DB6813F0200F07D1FEF797FE401B74
:102FA000B0F57A7FF4D9032000E0002038BD00BFDF
:102FB0005F3F010070B50368DA6812F0400F02D07D
:102FC0000025284670BD0446DA6842F08002DA60C7
:102FD000FEF77CFE064600252368DB6813F0400FF1
:102FE000EFD1002DEDD1FEF771FE831BB3F57A7F93
:102FF000F2D9042363770125EEE70268D36823F052
:103000008003D36003689B6813F0200F01D0002079
:10301000704710B50446FFF7B3FF10B10423637780
:10302000012010BD00284AD010B50446437F53B19B
:10303000022363772368DA6812F0100F07D00020AC
:103040000123637710BD0377FDF7D4FFF0E7CA22B1
:103050005A62236853225A622046FFF7ABFF28B119
:103060002368FF225A620028ECD1E9E722689368BE
:1030700023F4E00323F04003936021688A686368C7
:10308000206903436069034313438B602368E2684C
:103090001A6122681369A16843EA0143136120465B
:1030A000FFF7ABFF0028DBD12268136C23F48023E9
:1030B00013642268136CA1690B431364D0E70120E9
:1030C0007047002302E001330A38C0B20928FAD859
:1030D0001B01DBB218437047037F012B5AD070B538
:1030E00004460E46012303770223437732BB03686D
:1030F0009B6813F0400F01D10023CB703078FFF7AD
:10310000E0FF05047078FFF7DCFF45EA0025B078A2
:10311000FFF7D7FF0543F37845EA83552368CA22B2
:103120005A62236853225A622046FFF743FFB8B120
:103130002368FF225A620023237770BD03689B68CF
:1031400013F0400F01D10023CB70337875782D0236
:1031500045EA0345B3781D43F37845EA8355DDE737
:10316000236805F07F3525F0FE451D6022689368D1
:1031700023F48023936021688B68F26830690243EE
:1031800013438B602046FFF738FF0028D0D101237E
:103190006377CDE702207047037F012B48D070B5DD
:1031A00004460E460123037702234377CAB1CB7846
:1031B0004D782D0245EA03458B781D430B7845EA8F
:1031C00043352368CA225A62236853225A62204632
:1031D000FFF7F0FEF0B12368FF225A620023237745
:1031E00070BD4B7813F0100F03D003F0EF030A33D8
:1031F0004B70F078FFF765FF05047078FFF761FF0B
:1032000045EA0025B078FFF75CFF0543337845EACF
:103210004335D6E7236825F07F4525F0C0055D607E
:103220002046FFF7EAFE0028D5D101236377D2E7D5
:103230000220704710B483B08446454B1868454B54
:10324000A3FB0030C00A4FF47A7303FB00F0019037
:103250009CF81C30012B78D001238CF81C30022301
:103260008CF81D30DCF80030CA245C62DCF80030D9
:1032700053245C62DCF80040A36813F4806F09D02B
:10328000019B013B0193019B002B47D0E36813F0A6
:10329000040FF5D1A36823F48063A360DCF8004039
:1032A000E368DBB263F49063E3600190019B013B50
:1032B0000193019B002B3AD0DCF80030D86810F065
:1032C000040FF3D0986820F007009860DCF8000045
:1032D000836813438360DCF8003059611E4B1A6821
:1032E00042F480021A609A6842F480029A60DCF824
:1032F0000020936843F480439360DCF800209368D7
:1033000043F480639360DCF80030FF225A620123AB
:103310008CF81D3000208CF81C0012E0FF23636243
:1033200003208CF81D0000238CF81C3009E0DCF829
:103330000030FF225A6203208CF81D0000238CF815
:103340001C3003B05DF8044B70470220F9E700BF62
:1033500000000020D34D6210003C01407047000087
:1033600010B50446094B4FF480025A610368DA68CD
:1033700012F4806F02D10123637710BDDA68D2B2F4
:1033800062F49062DA60FFF7E9FFF4E7003C014085
:103390002DE9F04782B00546884617461E46FEF7DF
:1033A00095FC0A9B1B1A03EB0609FEF78FFC82466D
:1033B000284B1B68C3F3CB3309FB03F301932B6842
:1033C0009C6838EA04040CBF01230023BB423DD0B3
:1033D000B6F1FF3FF3D0FEF779FCA0EB0A004845B9
:1033E00003D2019B73BB9946E9E72A68536823F02F
:1033F000E00353606B68B3F5827F0BD0AB6AB3F523
:10340000005F14D0012385F85130002385F8503037
:1034100003201CE0AB68B3F5004F02D0B3F5806F1A
:10342000ECD12A68136823F040031360E6E72A68AA
:10343000136823F4005313602A68136843F400539D
:103440001360DFE7019B013B0193B8E7002002B066
:10345000BDE8F0870000002070B584B004460D463A
:10346000164600920B4601220221FFF791FFD0B9C8
:10347000174B1B68174AA2FB03235B0D4FF47A72AC
:1034800002FB03F303936368B3F5827F11D0039BC0
:103490003BB1039B013B039323689B6813F0800FB0
:1034A000F5D104B070BD636D43F020036365032064
:1034B000F7E700962B46002280212046FFF768FFA1
:1034C0000028EED0636D43F0200363650320E8E736
:1034D00000000020819F5E1600285AD010B50446D7
:1034E000436A33B94368B3F5827F05D00023C361D3
:1034F00002E00023036143610023A36294F851308A
:10350000002B40D0022384F851302268136823F046
:1035100040031360636803F48273A26802F40442F8
:103520001343E26802F400621343226902F00202CC
:103530001343626902F001021343A26902F40072AC
:103540001343E26902F038021343226A02F0800258
:103550001343A26A02F40052216813430B60638B89
:1035600003F00403626A02F01002216813434B6007
:103570002268D36923F40063D361002060650123CE
:1035800084F8513010BD84F850302046FDF782FD9C
:10359000B8E7012070472DE9F04383B0044689461F
:1035A00090461D46FEF792FB94F85130012B40F0F7
:1035B000CD800646DFB2B9F1000F00F0C880B8F147
:1035C000000F00F0C48094F85030012B00F0C3804D
:1035D000012384F85030032384F8513000236365BD
:1035E000C4F83090A4F83480A4F83680A363A3878D
:1035F000E38763642364A368B3F5004F1ED0236898
:103600001A6812F0400F03D11A6842F040021A60A3
:10361000E368B3F5006F1CD0636813B1B8F1010F14
:103620005FD1226B236812781A73236B01332363F3
:10363000E38E9BB2013B9BB2E38652E022681368A3
:1036400023F0400313602268136843F4804313603F
:10365000D5E7636813B1B8F1010F15D1226B236868
:103660001288DA60236B02332363E38E9BB2013B43
:103670009BB2E38608E0FEF729FB801BA84202D339
:10368000B5F1FF3F15D1A5B1E38E9BB2002B42D01F
:1036900023689A6812F0020FEDD0226B1288DA606C
:1036A000236B02332363E38E9BB2013B9BB2E38621
:1036B000EAE7012384F85130002384F850300327CF
:1036C00045E0226B12781A73236B01332363B4F83D
:1036D00036C01FFA8CFC0CF1FF3C1FFA8CFCA4F8DE
:1036E00036C0E38E9BB2B3B123689A6812F0020F22
:1036F000E7D1FEF7EBFA801BA84202D3B5F1FF3FFA
:1037000001D1002DEDD1012384F85130002384F83C
:10371000503003271BE0324629462046FFF79CFE27
:1037200008B120236365A36833B901932368DA687D
:1037300001929B680193019B012384F8513000237F
:1037400084F85030636D13B9002700E00227384633
:1037500003B0BDE8F0830227F9E7000030B4026A45
:10376000036A23F0010303624568836923F073034E
:103770000C681C4322F002028B6813430B4A9042F0
:1037800006D0456084614A684263036230BC70477A
:1037900023F00803CA681A4322F0040325F4407595
:1037A0004A692A438D691543EBE700BF00000140D9
:1037B00030B4036A026A22F4807202624468C26909
:1037C00022F073020D68154323F400738A6843EAFC
:1037D00002230D4A904206D04460C5614A68C26324
:1037E000036230BC704723F40063CA6843EA0223D3
:1037F00023F4806324F440544A6944EA02148A6939
:1038000044EA0214E8E700BF0000014030B4036A54
:10381000026A22F4805202624468C26922F4E642DB
:103820000D6842EA052223F400538D6843EA05330C
:10383000074DA84206D04460C2614A680264036230
:1038400030BC704724F480444D6944EA8514F2E7A3
:103850000000014010B4036A046A24F00104046209
:10386000846924F0F00C4CEA021223F00A030B43A3
:10387000826103625DF8044B704710B4036A046A06
:1038800024F010040462846924F4704C4CEA02327F
:1038900023F0A00343EA0113826103625DF8044B45
:1038A0007047836823F070030B4343F00703836082
:1038B0007047000090F83D30012B2FD1022380F893
:1038C0003D300268D36843F00103D3600368154AB2
:1038D000934218D0B3F1804F15D0A2F57C429342A9
:1038E00011D002F5806293420DD002F580629342BE
:1038F00009D002F59A32934205D01A6842F00102CB
:103900001A60002070479A6802F00702062A07D062
:103910001A6842F001021A600020704701207047C7
:1039200000207047000001407047704770477047A3
:10393000704770B504460368DE681D6915F0020F14
:1039400010D016F0020F0DD06FF002021A610123A1
:10395000037703689B6913F0030F5ED0FFF7E6FF60
:103960000023237715F0040F12D016F0040F0FD0A8
:1039700023686FF004021A610223237723689B698E
:1039800013F4407F4FD02046FFF7D0FF002323776A
:1039900015F0080F12D016F0080F0FD023686FF043
:1039A00008021A61042323772368DB6913F0030FED
:1039B00040D02046FFF7BAFF0023237715F0100F01
:1039C00012D016F0100F0FD023686FF010021A619A
:1039D000082323772368DB6913F4407F31D0204626
:1039E000FFF7A4FF0023237715F0010F02D016F094
:1039F000010F2DD115F0800F02D016F0800F2FD1BE
:103A000015F0400F02D016F0400F31D115F0200F05
:103A100002D016F0200F33D170BDFFF786FF20468D
:103A2000FFF785FF9CE72046FFF77FFF2046FFF763
:103A30007EFFABE72046FFF778FF2046FFF777FFD2
:103A4000BAE72046FFF771FF2046FFF770FFC9E78E
:103A500023686FF001021A612046FDF7F9F9C9E702
:103A600023686FF080021A61204600F04BFAC7E726
:103A700023686FF040021A612046FFF759FFC5E73F
:103A800023686FF020021A61204600F03AFAC3E77B
:103A90000368274A90420ED0B0F1804F0BD0A2F5B8
:103AA0007C42904207D002F58062904203D002F53A
:103AB0008062904203D123F070034A6813431C4A8A
:103AC00090421AD0B0F1804F17D0A2F57C429042BC
:103AD00013D002F5806290420FD002F580629042CE
:103AE0000BD002F59A32904207D002F580629042E4
:103AF00003D002F58062904203D123F44073CA6878
:103B0000134323F080034A6913438A68C2620A6838
:103B10008262074A904207D0026842F004020260C3
:103B200001224261036070470A690263F4E700BF43
:103B30000000014040B310B5044690F83D30F3B1A9
:103B4000022384F83D30214651F8040BFFF7A0FF13
:103B5000012384F8463084F83E3084F83F3084F8FE
:103B6000403084F8413084F8423084F8433084F89F
:103B7000443084F8453084F83D30002010BD80F892
:103B80003C30FDF7F7FBDBE70120704740B310B591
:103B9000044690F83D30F3B1022384F83D302146CD
:103BA00051F8040BFFF774FF012384F8463084F8C2
:103BB0003E3084F83F3084F8403084F8413084F857
:103BC000423084F8433084F8443084F8453084F837
:103BD0003D30002010BD80F83C30FFF7A5FEDBE74C
:103BE0000120704730B4036A026A22F010020262B8
:103BF0004468826922F4E6420D6842EA052223F015
:103C000020038D6843EA05130C4DA84206D044609A
:103C100082614A688263036230BC704723F080038C
:103C2000CD6843EA051323F0400324F440644D6952
:103C300044EA85048D6944EA8504E8E70000014010
:103C400038B590F83C30012B66D004460D46012370
:103C500080F83C300C2A5AD8DFE802F0075959594D
:103C60001B5959593059595944000068FFF776FDDE
:103C70002268936943F0080393612268936923F0F3
:103C8000040393612268936929690B4393610020BF
:103C90003EE00068FFF7A6FF2268936943F40063E3
:103CA00093612268936923F4806393612268936926
:103CB000296943EA01239361002029E00068FFF7A6
:103CC00077FD2268D36943F00803D3612268D36982
:103CD00023F00403D3612268D36929690B43D361BC
:103CE000002015E00068FFF791FD2268D36943F4D6
:103CF0000063D3612268D36923F48063D3612268AF
:103D0000D369296943EA0123D361002000E001203F
:103D1000002384F83C3038BD0220FCE710B48468EE
:103D200024F47F4C42EA03220A4342EA0C028260F6
:103D30005DF8044B704790F83C30012B78D010B5FB
:103D40000446012380F83C30022380F83D300268AD
:103D5000936823F47F4323F0770393600B68602B11
:103D60004CD023D8402B54D011D8202B03D00AD8C4
:103D70000BB1102B05D119462068FFF792FD0020EA
:103D800028E0012026E0302BF5D0012022E0502B46
:103D90000AD1CA6849680068FFF75CFD50212068B5
:103DA000FFF77FFD002015E0012013E0B3F5805FF1
:103DB0003AD0B3F5005F14D0702B37D1CB684A6886
:103DC00089680068FFF7AAFF2268936843F07703C9
:103DD00093600020012384F83D30002384F83C30B8
:103DE00010BDCB684A6889680068FFF797FF2268B2
:103DF000936843F4804393600020EBE7CA68496806
:103E00000068FFF73AFD60212068FFF74AFD0020B7
:103E1000E0E7CA6849680068FFF71CFD4021206898
:103E2000FFF73FFD0020D5E70020D3E70120D1E7D1
:103E30000220704790F83C20012A35D010B4034688
:103E4000012280F83C20022280F83D200268506860
:103E5000946820F0700C086840EA0C0050601A6802
:103E60001248824212D0B2F1804F0FD0A0F57C40B0
:103E700082420BD000F58060824207D000F580605E
:103E8000824203D000F59A30824204D124F08004AB
:103E9000496821439160012283F83D20002083F886
:103EA0003C005DF8044B7047022070470000014061
:103EB000024690F83C30012B21D0012380F83C30A1
:103EC000CB6823F440738868034323F48063486815
:103ED000034323F400630868034323F48053086911
:103EE000034323F400534869034323F48043C9691F
:103EF0000B4311684B64002082F83C00704702209D
:103F0000704770477047026802F10C0353E8003FA6
:103F100023F0C0030C3242E800310029F3D1202302
:103F200080F841307047026802F10C0353E8003F0B
:103F300023F490730C3242E800310029F3D1026877
:103F400002F1140353E8003F23F00103143242E866
:103F500000310029F3D1036B012B05D0202380F819
:103F60004230002303637047026802F10C0353E8F8
:103F7000003F23F010030C3242E800310029F3D156
:103F8000ECE790F84130212B01D002207047836884
:103F9000B3F5805F17D0036A5A1C02621A7803686F
:103FA0005A60C38C9BB2013B9BB2C3844BB902687D
:103FB000D36823F08003D3600268D36843F04003E2
:103FC000D360002070470369002BE4D1036A1B888B
:103FD0000268C3F308035360036A02330362E0E735
:103FE00010B504460268136923F44053C1680B43BB
:103FF0001361836802691A4343691A43C3691A4308
:104000000168CB6823F4164323F00C031343CB6001
:104010000268536923F4407381690B435361036859
:10402000314A934206D002F58062934202D0FEF7F5
:10403000B1FE01E0FEF7BEFEE369B3F5004F29D003
:104040000021031849411B1841F10001C90041EA50
:104050005371DB00181863684FEA83024FEA9373C9
:1040600041F10001FCF7E0FA204AA2FB00314909C6
:10407000642303FB11031B013233A2FB03235B09FF
:1040800003F0F00202EB011203F00F032168134466
:104090008B6010BD0023021843EB0301121841F19D
:1040A0000001C90041EA5271D200101841F100012B
:1040B000626892185B41FCF7B7FA0C4AA2FB003128
:1040C0004909642303FB1103DB003233A2FB032302
:1040D0005B095A0002F4F87202EB011203F00703C5
:1040E000216813448B60D4E7001001401F85EB5119
:1040F0002DE9F04383B005460E4617469946DDF894
:1041000028802B681C6836EA04040CBF01240024B4
:10411000BC4228D1B8F1FF3FF3D0FDF7D7FDA0EBAB
:104120000900404523D8B8F1000F22D02B68DA6887
:1041300012F0040FE5D0802EE3D0402EE1D01A68B3
:1041400012F0080FDDD0002401941A6801925B6818
:104150000193019B2846FFF7E6FE08236B6485F870
:104160004040012000E0002003B0BDE8F0830320C0
:10417000FAE70320F8E760B310B5044690F8413041
:1041800013B3242384F841302268D36823F4005306
:10419000D3602046FFF724FF2268136923F490437D
:1041A00013612268536923F02A0353612268D3689C
:1041B00043F40053D36000206064202384F841302E
:1041C00084F84230606310BD80F84030FDF7C0F9DC
:1041D000D7E7012070472DE9F04182B01E4690F8E4
:1041E0004130202B56D104460D469046002955D02B
:1041F0000AB901204FE000234364212380F84130B5
:10420000FDF764FD0746A4F82480A4F82680A3687F
:10421000B3F5805F02D04FF0000814E023692BB3A0
:104220004FF000080FE0202384F84130032032E0F3
:1042300038F8023B2268C3F308035360E28C92B261
:10424000013A92B2E284E38C9BB293B100963B4672
:10425000002280212046FFF74BFF0028E3D1002DEC
:10426000E6D015F8012B23685A60E7E7A846002539
:10427000E9E700963B46002240212046FFF738FF41
:1042800018B9202384F8413005E0202384F8413018
:10429000032000E0022002B0BDE8F0810120FAE72F
:1042A00008B50168CA6822F04002CA60202280F87E
:1042B0004120FDF727FA002008BD10B5846B236864
:1042C0005B6994F84120212A0FD023685B6903F0D1
:1042D000400394F84220222A11D0636C43F010036B
:1042E00063642046FDF73EFA10BD03F08003002B07
:1042F000EBD00023E3842046FFF705FEE5E7002B23
:10430000EBD00023E3852046FFF70DFEE5E708B577
:10431000806B0023C385FDF725FA08BD704790F830
:104320004230222B69D18368B3F5805F4FD0826A17
:10433000B3F5805F04D0002B56D10369002B53D115
:1043400003685B681370836A01338362C38D9BB219
:10435000013B9BB2C385002B51D100B583B00268ED
:10436000D36823F02003D3600268D36823F48073FA
:10437000D3600268536923F001035361202380F85E
:10438000423000234363036B012B33D100230363CB
:10439000026802F10C0353E8003F23F010030C32D3
:1043A00042E800310029F3D103681A6812F0100FB7
:1043B00006D0002201921A6801925B680193019B6A
:1043C000818DFFF7ABFF002003B05DF804FB0269AD
:1043D000002AACD1826A03685B68C3F308031380C8
:1043E000836A02338362B1E703685B6803F07F038B
:1043F0001370A8E7FDF796F9E5E702207047002063
:104400007047000010B582B0044602681368D06897
:10441000516913F00F0F09D113F0200F0CD010F0D9
:10442000200F09D02046FFF77AFF16E011F00101B6
:1044300015D110F4907F12D1216B012979D013F09E
:10444000800F03D010F0800F40F0218113F0400F57
:1044500003D010F0400F40F01E8102B010BD13F0E9
:10446000010F06D010F4807F03D0626C42F001028D
:10447000626413F0040F04D019B1626C42F00202BE
:10448000626413F0020F04D019B1626C42F00402AE
:10449000626413F0080F07D010F0200F00D119B19B
:1044A000626C42F008026264626C002AD5D013F09C
:1044B000200F02D010F0200F29D123685B6903F090
:1044C0004003626C12F0080F00D163B32046FFF77F
:1044D0002AFD23685B6913F0400F20D0226802F1A7
:1044E000140353E8003F23F04003143242E8003144
:1044F0000029F3D1E36B73B1694A1A65E06BFDF7EC
:104500004EFF0028A9D0E06B036D9847A5E7204631
:10451000FFF705FFD1E72046FDF724F99DE7204688
:10452000FDF720F999E72046FDF71CF900236364A5
:1045300093E713F0100F82D010F0100F3FF47FAF0D
:10454000002301931368019353680193019B5369FE
:1045500013F0400F5FD0E26B13685B689BB2002BD7
:104560004AD0A18D994247D9E385D369B3F5807FBD
:1045700037D0226802F10C0353E8003F23F4807324
:104580000C3242E800310029F3D1226802F1140311
:1045900053E8003F23F00103143242E800310029C0
:1045A000F3D1226802F1140353E8003F23F04003E3
:1045B000143242E800310029F3D1202384F842303C
:1045C00000232363226802F10C0353E8003F23F029
:1045D00010030C3242E800310029F3D1E06BFDF703
:1045E00095FE02236363A18DE38D9BB2C91A89B244
:1045F0002046FFF793FE30E7A18D99427FF42DAF5F
:10460000D369B3F5807F7FF428AF0223636320462C
:10461000FFF784FE21E7A18DE38D9BB2C91A89B211
:10462000E38D9BB2002B3FF418AF00293FF415AF88
:10463000226802F10C0353E8003F23F490730C321C
:1046400042E800300028F3D1226802F1140353E855
:10465000003F23F00103143242E800300028F3D178
:10466000202384F8423000232363226802F10C03E4
:1046700053E8003F23F010030C3242E800300028DA
:10468000F3D1022363632046FFF748FEE5E62046A8
:10469000FFF777FCE1E62046FFF702FEDDE600BF0C
:1046A0000F43000808B5806B01234363036B012BA4
:1046B00002D0FDF747F808BD818D4908FFF72EFEAF
:1046C000F9E708B50346806B1B681B6813F4807F0D
:1046D0002BD10023C385026802F10C0353E8003F8D
:1046E00023F480730C3242E800310029F3D10268D0
:1046F00002F1140353E8003F23F00103143242E8AF
:1047000000310029F3D1026802F1140353E8003F9D
:1047100023F04003143242E800310029F3D1202372
:1047200080F84230036B012B07D000234363036BF7
:10473000012B0FD0FCF7F6FF08BD026802F10C0355
:1047400053E8003F23F010030C3242E80031002907
:10475000F3D1EAE7818DFFF7E1FDEDE730B583B0F6
:10476000044613468162828500224264222084F836
:104770004200E06B244DC563E06B244D0564E06BA3
:10478000234DC564E06B026520680A46011DE06B9D
:10479000FDF788FD00282FD10023019323681A68B4
:1047A00001925B680193019B23695BB1226802F16E
:1047B0000C0353E8003F43F480730C3242E80031AD
:1047C0000029F3D1226802F1140353E8003F43F0BB
:1047D0000103143242E800310029F3D1226802F1CA
:1047E000140353E8003F43F04003143242E8003121
:1047F0000029F3D103B030BD10236364202384F873
:1048000042300120F6E700BFC3460008A546000875
:10481000BB42000808B590F84230202B08D149B1BE
:104820000AB9012008BD00230363FFF797FFF9E7EA
:104830000220F7E70120F5E708B54FF0E0231B69F8
:1048400001F00EFE012800D108BD00F0FBFAFBE7E5
:10485000EFF305832BB9064B186828B901221A60BB
:1048600070476FF0050070474FF0FF30704700BF92
:10487000FC0C0020EFF3058373B90A4B1B68012B76
:104880000DD110B50024084BDC77064B02221A60CC
:1048900001F0D6FA204610BD6FF0050070474FF0CA
:1048A000FF307047FC0C002000ED00E008B5EFF38E
:1048B000058343B901F0D4FD40B1022808D101F0CD
:1048C0000BFB002008BD6FF00500FBE70120F9E7B6
:1048D0004FF0FF30F6E708B5EFF305837BB901F041
:1048E000BFFD18B102280DD1002008BD01F096FBD4
:1048F0000128FAD001F0B4FD38B10120F5E76FF0DE
:104900000500F2E74FF0FF30EFE74FF0FF30ECE744
:1049100008B5EFF3058313B101F0ECFA08BD01F01F
:10492000E3FAFBE74FF47A707047F0B587B00024E4
:104930000594EFF3058404BBF8B1002A34D0156860
:1049400093692BB11E46013B372B02D9002015E09D
:104950001826536813F0010F3FD1546984B14FEA10
:10496000940C93682BB1D7685B2F02D9176907B1F4
:1049700084B943B14FF0FF330BB3059807B0F0BDD6
:104980004FF0800CEDE7D368A3B91369ABB14FF0DA
:10499000FF33F1E70293019700960B4662462946E2
:1049A00001F03EF90590E8E71546002318264FF080
:1049B000800CE1E74FF0FF33DEE70023DCE705ABD7
:1049C000019300960B461FFA8CF2294601F063F919
:1049D0000128D2D000230593CFE70020CEE708B509
:1049E00001F038FD08BD08B50346EFF3058028B98E
:1049F0002BB1184601F022FD800000E0002008BD28
:104A0000EFF305835BB910B5044658B101F0D2F954
:104A100004280AD0204601F071F9002010BD6FF083
:104A2000050070476FF00300F8E76FF00200F5E74C
:104A30002DE9F04F85B0EFF305830193002B40D1B2
:104A400081468A461746002841DB11F0020F06D046
:104A5000984601F049FA83463E46019D23E0804690
:104A6000F7E705EA0905039B1D431AF0010F0DD076
:104A700039EA050327D06FB301F036FAA0EB0B0338
:104A80009E420BD3ABEB000006440BE019EA050F86
:104A900019D1002FF0D16FF0020514E0019E01E062
:104AA0006FF001057CB1334603AA4146002001F0B6
:104AB0002FFD04460128D4D0002FF1D16FF002055C
:104AC000F0E76FF00505284605B0BDE8F08F6FF000
:104AD0000305F8E76FF00205F5E708B5EFF3058386
:104AE00033B908B9002008BD01F066FB0020FAE7E1
:104AF0006FF00500F7E7EFF3058373B910B582B0E7
:104B0000044601F0F1F90190211A002908DD01A8FD
:104B100001F000FB002002B010BD6FF005007047EF
:104B20006FF00300F7E708B5EFF30583CBB9A0B149
:104B3000836813B1C2681F2A0BD82BB14FF0FF3323
:104B40008BB900F050F808BDC36843B14FF0FF3394
:104B5000F6E7184600F022F8F5E70023F0E7002317
:104B6000EEE70020EFE70020EDE70000034B0360D5
:104B7000034B0B6080231360704700BFA00C002024
:104B8000A00A0020034B0360034B0B604FF48073BB
:104B900013607047440A00204406002080B110B51D
:104BA00082B0044620230193019B202B11D04FF0AB
:104BB000500383F31188BFF36F8FBFF34F8FFEE76E
:104BC0004FF0500383F31188BFF36F8FBFF34F8F04
:104BD000FEE7002340F8043B00F013F8012323779D
:104BE000204602B010BD38B5202000F073FA04460C
:104BF00028B1002540F8045B00F003F82577204633
:104C000038BD00F1080343604FF0FF328260C3609B
:104C1000036100230360704700230361704743680A
:104C20004B609A688A60516099600861036801333B
:104C30000360704730B40D68B5F1FF3F11D000F14B
:104C400008031C465B681A68AA42FAD963684B607D
:104C500099608C606160086103680133036030BC57
:104C600070470469F2E70369416882688A604168B5
:104C700051605A68824206D0002202611A68013AE5
:104C80001A601868704782685A60F5E782B000239E
:104C900001930D4B1B68B3F1FF3F08D04FF0500359
:104CA00083F31188BFF36F8FBFF34F8FFEE74FF091
:104CB000500383F31188BFF36F8FBFF34F8F019BB6
:104CC000002BFCD002B07047180000200848006894
:104CD000006880F308884FF0000080F3148862B603
:104CE00061B6BFF34F8FBFF36F8F00DF00BF0000CF
:104CF00008ED00E0DFF80C00016841F4700101608C
:104D00007047000088ED00E04FF0807340F8043CED
:104D100021F0010140F8081C054B40F80C3C40F81C
:104D2000202C6FF0020340F8243C4438704700BF49
:104D30008D4C000800000000000000000000000092
:104D4000074B19680868B0E8F04F80F30988BFF393
:104D50006F8F4FF0000080F311887047AFF3008031
:104D6000644E00204FF0500383F31188BFF36F8F20
:104D7000BFF34F8F0B4A136801331360012B00D030
:104D800070474FF0E023D3F8043D13F0FF0FF7D046
:104D90004FF0500383F31188BFF36F8FBFF34F8F32
:104DA000FEE700BF18000020094B1B6843B94FF015
:104DB000500383F31188BFF36F8FBFF34F8FFEE76C
:104DC000013B034A13600BB983F31188704700BF9E
:104DD000180000200000000000000000000000009B
:104DE000EFF30980BFF36F8F154B1A681EF0100F99
:104DF00008BF20ED108A20E9F04F10602DE909006E
:104E00004FF0500080F31188BFF34F8FBFF36F8FC7
:104E100001F0F8F94FF0000080F3118809BC19681F
:104E20000868B0E8F04F1EF0100F08BFB0EC108A11
:104E300080F30988BFF36F8F704700BFAFF3008026
:104E4000644E002008B54FF0500383F31188BFF380
:104E50006F8FBFF34F8F01F055F828B14FF0E0236B
:104E60004FF08052C3F8042D002383F3118808BD4E
:104E70004FF0E022002313619361054B1B68054945
:104E8000A1FB03139B09013B536107231361704787
:104E900000000020D34D62104FF0E023D3F8002D26
:104EA0003D4B9A421CD04FF0E023D3F8002D3B4BF2
:104EB0009A421ED030B583B0394B1A78D2B20192E3
:104EC000FF221A701B78DBB28DF803309DF8033097
:104ED00003F05003334A1370334B07221A601BE070
:104EE0004FF0500383F31188BFF36F8FBFF34F8FE1
:104EF000FEE74FF0500383F31188BFF36F8FBFF3CA
:104F00004F8FFEE7284A1368013B13609DF803307A
:104F10005B00DBB28DF803309DF8033013F0800F97
:104F2000F0D1214B1B68032B08D04FF0500383F3C3
:104F30001188BFF36F8FBFF34F8FFEE71B021A4A32
:104F4000136003F4E0631360019BDBB2144A137037
:104F50004FF0E024D4F8203D43F47003C4F8203D22
:104F6000D4F8203D43F07043C4F8203DFFF780FFA4
:104F700000250E4B1D60FFF7BDFED4F8343F43F013
:104F80004043C4F8343FFFF7A1FE01F03BF9FFF7BF
:104F90007DFE284603B030BD71C20F4170C20F4183
:104FA00000E400E0040D0020000D002018000020A7
:104FB000EFF305830F2B0ED9114A9A5C114B1B7826
:104FC0009A4208D24FF0500383F31188BFF36F8FDA
:104FD000BFF34F8FFEE74FF0E023D3F80C3D03F40F
:104FE000E063094A1268934208D94FF0500383F3F3
:104FF0001188BFF36F8FBFF34F8FFEE7704700BF7D
:10500000F0E300E0040D0020000D0020124A12F031
:10501000070F1ED0D11D21F00701C1F570531344B5
:105020000A460E480260002141601344083B23F009
:1050300007030B48036059601960991A51601360A7
:10504000084B1960084B1960084B4FF000421A607A
:1050500070474FF47053E4E7280D0020200D002026
:105060001C0D0020140D0020180D0020080D00203C
:10507000164B1A461B688342FBD3516802EB010CA6
:10508000844509D0416800EB010C634509D00360F9
:10509000904219D01060704740680144516010463A
:1050A000F0E710B40A4C2468A3420BD05B681944A3
:1050B000416013681B680360904200D010605DF887
:1050C000044B70470460F7E7704700BF200D0020D5
:1050D0001C0D002038B5044600F0FEFE384B1B685E
:1050E000B3B1384B1B681C4250D1002C50D004F196
:1050F000080214F0070F02D022F007020832002A3B
:1051000055D0314B1B68934253D330490C6804E0AF
:10511000FFF77CFFE5E721461C466368934202D215
:105120002368002BF7D1264B1B68A34243D00D68A0
:10513000083523680B6063689B1A102B10D9A018E0
:1051400010F0070F08D04FF0500383F31188BFF31E
:105150006F8FBFF34F8FFEE743606260FFF788FFFA
:10516000626819490B689B1A0B60194909688B42E0
:1051700001D217490B60134B1B6813436360002374
:105180002360144A13680133136002E0002500E035
:10519000002500F043FF15F0070F0ED04FF050032D
:1051A00083F31188BFF36F8FBFF34F8FFEE70025A6
:1051B000EFE70025EDE70025EBE7284638BD00BF07
:1051C0001C0D0020080D0020180D0020200D0020CF
:1051D000140D0020100D0020002834D038B50446EE
:1051E000A0F1080550F8043C174A1268134208D190
:1051F0004FF0500383F31188BFF36F8FBFF34F8FCE
:10520000FEE750F8081C41B14FF0500383F31188BA
:10521000BFF36F8FBFF34F8FFEE723EA020340F81F
:10522000043C00F059FE54F8041C084A13680B446F
:1052300013602846FFF71CFF054A1368013313600B
:1052400000F0ECFE38BD7047080D0020180D00205E
:105250000C0D002010B50446FFF784FDA26BE36B34
:105260009A4204D00024FFF79FFD204610BD012480
:10527000F9E710B50446FFF775FDA36B23B90124C8
:10528000FFF792FD204610BD0024F9E770B50446F3
:105290001546866B026C5AB903681BB100200136B3
:1052A000A66370BD806801F0EBF80023A360F6E709
:1052B0006DB9406802F023FB6368226C134463609D
:1052C000A268934219D3236863602846E7E7C06861
:1052D00002F015FBE368226C51429B1AE3602268DE
:1052E000934202D2A3680B44E360022D01D0002058
:1052F000D5E726B1013E0020D1E72846CFE70020C0
:10530000CDE70346026C6AB110B50846D96811446E
:10531000D9609C68A14201D31968D960D96802F0AC
:10532000EEFA10BD704738B50546FFF71BFD95F83E
:10533000454064B201E0013C64B2002C0ADD6B6AB6
:1053400043B105F1240000F0DDFF0028F3D001F0A7
:105350006FF8F0E7FF2385F84530FFF725FDFFF7ED
:1053600001FD95F8444064B201E0013C64B2002CB8
:105370000ADD2B6943B105F1100000F0C3FF0028DE
:10538000F3D001F055F8F0E7FF2385F84430FFF73C
:105390000BFD38BD38B5E0B10D460446FFF7E2FC21
:1053A0002368E26B216C01FB0230A0600020A06347
:1053B0006360013A02FB0133E360FF2384F8443069
:1053C00084F84530FDB9236963B9FFF7EDFC01208E
:1053D00038BD4FF0500383F31188BFF36F8FBFF3D5
:1053E0004F8FFEE704F1100000F08CFF0028ECD096
:1053F0004FF0E0234FF08052C3F8042DBFF34F8FDE
:10540000BFF36F8FE1E704F11000FFF7FAFB04F13F
:105410002400FFF7F6FBD8E738B51D46049C0B4681
:1054200049B92460E063236401212046FFF7B2FFFD
:1054300084F84C5038BD2260F4E740B94FF0500377
:1054400083F31188BFF36F8FBFF34F8FFEE710B563
:1054500084B01C46844653B192B189B94FF05003D1
:1054600083F31188BFF36F8FBFF34F8FFEE74FF0C9
:10547000500383F31188BFF36F8FBFF34F8FFEE7A5
:105480006AB150230393039B502B13D04FF050036A
:1054900083F31188BFF36F8FBFF34F8FFEE70029AF
:1054A000EFD04FF0500383F31188BFF36F8FBFF33A
:1054B0004F8FFEE7039B012384F8463000949DF84C
:1054C00018306046FFF7A8FF204604B010BDF0B5C5
:1054D00085B0019288B10F461D460446B1B1022D38
:1054E00020D1E36B012B1DD04FF0500383F31188C3
:1054F000BFF36F8FBFF34F8FFEE74FF0500383F37F
:105500001188BFF36F8FBFF34F8FFEE7036C002B43
:10551000E5D04FF0500383F31188BFF36F8FBFF3D3
:105520004F8FFEE700F09CFF064658B9019B002B09
:1055300048D04FF0500383F31188BFF36F8FBFF350
:105540004F8FFEE700263DE02A4639462046FFF70A
:105550009DFE636A7BB948B14FF0E0234FF0805263
:10556000C3F8042DBFF34F8FBFF36F8FFFF71CFC01
:10557000012005B0F0BD04F1240000F0C3FE0028B6
:10558000F4D04FF0E0234FF08052C3F8042DBFF366
:105590004F8FBFF36F8FE9E7FFF706FC0020E8E7C6
:1055A00002A800F0F5FE012619E0002384F844303B
:1055B00021E0002384F8453023E02046FFF7B3FEC6
:1055C00000F02CFDFFF7CEFBA26BE36B9A42BBD33E
:1055D000022DB9D0019B002BDED0002EE0D0FFF7CA
:1055E000E3FB00F079FCFFF7BDFB94F8442052B2D6
:1055F000B2F1FF3FD9D094F8452052B2B2F1FF3F4B
:10560000D7D0FFF7D1FB01A902A800F0CDFED8B991
:105610002046FFF71FFE0028CFD0019904F11000AB
:1056200000F03CFE2046FFF77EFE00F0F7FC00286D
:10563000C8D14FF0E0234FF08052C3F8042DBFF3E0
:105640004F8FBFF36F8FBDE72046FFF76CFE00F072
:10565000E5FC00208DE72DE9F84390B10F46164692
:105660001C460546B1B1022C20D1EB6B012B1DD09D
:105670004FF0500383F31188BFF36F8FBFF34F8F49
:10568000FEE74FF0500383F31188BFF36F8FBFF332
:105690004F8FFEE7036C002BE5D04FF0500383F3F0
:1056A0001188BFF36F8FBFF34F8FFEE7FFF780FCCA
:1056B000EFF311884FF0500383F31188BFF36F8F1E
:1056C000BFF34F8FAA6BEB6B9A4206D3022C04D028
:1056D000002088F31188BDE8F88395F845904FFACB
:1056E00089F9AB6B224639462846FFF7CFFDB9F161
:1056F000FF3F06D009F101035BB285F84530012078
:10570000E7E76B6A0BB90120E3E705F1240000F03D
:10571000F9FD18B126B101203060DAE70120D8E7A1
:105720000120D6E7F0B585B0019290B10F4604464E
:10573000C1B100F095FE064600BB019B002B5ED078
:105740004FF0500383F31188BFF36F8FBFF34F8F78
:10575000FEE74FF0500383F31188BFF36F8FBFF361
:105760004F8FFEE7036C002BE3D04FF0500383F321
:105770001188BFF36F8FBFF34F8FFEE700263EE027
:1057800039462046FFF7BDFD013DA563236923B9D6
:10579000FFF70AFB012005B0F0BD04F1100000F096
:1057A000B1FD0028F4D04FF0E0234FF08052C3F851
:1057B000042DBFF34F8FBFF36F8FE9E7FFF7F4FAC4
:1057C0000020E8E702A800F0E3FD012621E0002325
:1057D00084F8443029E0002384F845302BE020464B
:1057E000FFF7A1FD00F01AFC09E02046FFF79BFD42
:1057F00000F014FC2046FFF73CFD00283FD1FFF7E6
:10580000B1FAA56B002DBBD1019B002BD6D0002E89
:10581000D8D0FFF7C9FA00F05FFBFFF7A3FA94F8BE
:1058200044305BB2B3F1FF3FD1D094F845305BB266
:10583000B3F1FF3FCFD0FFF7B7FA01A902A800F0FC
:10584000B3FD0028D1D12046FFF713FD0028C6D0B4
:10585000019904F1240000F021FD2046FFF763FDCB
:1058600000F0DCFB0028CAD14FF0E0234FF080525B
:10587000C3F8042DBFF34F8FBFF36F8FBFE7002036
:1058800089E700000023072B0CD8074A52F8332081
:105890000AB10133F7E7044A42F8331002EBC302BE
:1058A00050607047704700BF2849002070B504461B
:1058B0000D461646FFF756FA94F844305BB2B3F142
:1058C000FF3F0DD094F845305BB2B3F1FF3F0BD0F2
:1058D000FFF76AFAA36B5BB12046FFF724FD70BDAA
:1058E000002384F84430EDE7002384F84530EFE7E7
:1058F0003246294604F1240000F0E8FCECE70023DE
:1059000001E0013001330278A52AFAD0C3F38F00F9
:1059100070470000084B1B681B6823B9074B4FF00A
:10592000FF321A607047044B1B68DB68DB685A68FB
:10593000024B1A60704700BFD84900207049002010
:105940002DE9F04780460D4617469946089EDDF83A
:1059500024A00A9C9200A521206B01F051FF236B2B
:1059600007F18042013A03EB820727F00707A5B34E
:105970004FF0000CBCF10F0F09D815F80C3004EBF8
:105980000C0282F8343013B10CF1010CF2E7002361
:1059900084F84330372E00D93726E662E6640025C6
:1059A0002565201DFFF738F904F11800FFF734F9D9
:1059B0002461C6F13806A6616462656584F85850B2
:1059C0004A4641463846FFF79FF92060BAF1000F7A
:1059D00001D0CAF80040BDE8F087002384F83430D5
:1059E000D8E7000038B5002407E004EB84029300F8
:1059F0000E481844FFF705F90134372CF5D90C4D42
:105A00002846FFF7FEF80B4C2046FFF7FAF80A4845
:105A1000FFF7F7F80948FFF7F4F80948FFF7F1F83E
:105A2000084B1D60084B1C6038BD00BF044A0020B5
:105A3000F0490020DC490020C0490020AC4900208A
:105A400094490020D8490020D449002010B50446CC
:105A5000FFF788F9224A136801331360214B1B6852
:105A60005BB1214B1B686BB91E4B1B68DA6AE36A9A
:105A70009A4207D81B4B1C6004E01A4B1C60136849
:105A8000012B29D0194A1368013313606364E06A5B
:105A9000174B1B68984201D9154B186000EB80002A
:105AA000211D144B03EB8000FFF7B9F8FFF77CF9D9
:105AB0000D4B1B687BB10B4B1B68DA6AE36A9A4299
:105AC00009D24FF0E0234FF08052C3F8042DBFF30A
:105AD0004F8FBFF36F8F10BDFFF784FFD2E700BF7A
